:020000040800F2
:10000000780600208901000805050008FD040008A5
:100010000105000843020008510B00080000000021
:10002000000000000000000000000000B105000812
:1000300047020008000000008D0500089D0600082A
:10004000A3010008A3010008A3010008A301000800
:10005000A3010008A3010008A3010008A3010008F0
:1000600049020008A3010008A3010008A301000839
:10007000A3010008A3010008A3010008A3010008D0
:10008000A3010008A3010008A3010008A3010008C0
:10009000A3010008A3010008A3010008A3010008B0
:1000A000A3010008A30100080D070008A301000830
:1000B000A3010008A30100086D090008A3010008BE
:1000C000A3010008A3010008A3010008A301000880
:1000D000A3010008A3010008A3010008A301000870
:1000E000A3010008A3010008A301000800F002F822
:1000F00000F03AF80AA090E8000C82448344AAF188
:100100000107DA4501D100F02FF8AFF2090EBAE885
:100110000F0013F0010F18BFFB1A43F0010318473B
:10012000B00C0000D00C0000103A24BF78C878C191
:10013000FAD8520724BF30C830C144BF04680C60ED
:10014000704700000023002400250026103A28BF35
:1001500078C1FBD8520728BF30C148BF0B60704739
:100160001FB51FBD10B510BD00F031F81146FFF7E7
:10017000F7FF00F05DFD00F04FF803B4FFF7F2FF6A
:1001800003BC00F057F800000948804709480047C1
:10019000FEE7FEE7FEE7FEE7FEE7FEE7FEE7FEE737
:1001A000FEE7FEE704480549054A064B7047000094
:1001B000AD060008ED000008780000207806002059
:1001C000780200207802002070477047704775461B
:1001D00000F02CF8AE4605006946534620F00700B3
:1001E000854618B020B5FFF7DDFFBDE820404FF091
:1001F00000064FF000074FF000084FF0000B21F011
:100200000701AC46ACE8C009ACE8C009ACE8C009DD
:10021000ACE8C0098D46704710B50446AFF30080C6
:100220002046BDE81040FFF7A8BF00000048704717
:100230001400002001491820ABBEFEE72600020092
:10024000704700BFFEE7704710B50421154800F065
:100250002CF928BB144800F00FFD0421114800F0D0
:1002600024F9D0B911480068401C1049086008689A
:1002700000EBD0714910A0EB410119B101200C49EC
:1002800008600AE00949086800EBD0714910A0EB4A
:10029000410111B9022006490860042000F00AF863
:1002A00010BD00000010014040771B000800002036
:1002B0000C00002001490860704700001404014050
:1002C000002123498279002A3AD00A46126803683D
:1002D0009A430B461A600A1D126803689A430B1D65
:1002E0001A60027911440A6803681A430A60184ABE
:1002F0000832126803689A43154B08331A601A1DB6
:10030000126803689A43124B0C331A604279102A20
:100310000ED11A1F126803681A430D4B08331A6076
:100320001A1D126803681A43094B0C331A600DE05A
:100330000749427911440A6803681A430A6005E0D4
:10034000027911440A6803689A430A607047000002
:100350000004014030B500228B071C0F0F2303FA65
:1003600004F20B4B8C1053F824309343084C8D103F
:1003700044F8253023468C1053F824308C07240F82
:1003800000FA04F42343024C8D1044F8253030BDAC
:10039000080001402DE9F04102460025002600201A
:1003A00000230024002791F803C00CF00F0591F8FA
:1003B00003C00CF0100CBCF1000F03D091F802C088
:1003C0004CEA050591F800C0BCF1000F31D014686B
:1003D00000202BE04FF0010C0CFA00F3B1F800C044
:1003E0000CEA03069E4220D183004FF00F0C0CFA5A
:1003F00003F7BC4305FA03FC4CEA040491F803C07C
:10040000BCF1280F06D14FF0010C0CFA00FCC2F829
:1004100014C00AE091F803C0BCF1480F05D14FF0B9
:10042000010C0CFA00FCC2F810C0401C0828D1D303
:100430001460B1F800C0BCF1FF0F34DD5468002037
:100440002EE000F1080C4FF0010808FA0CF3B1F8A7
:1004500000C00CEA03069E4221D183004FF00F0C2E
:100460000CFA03F7BC4305FA03FC4CEA040491F8C8
:1004700003C0BCF1280F05D100F1080C08FA0CF8F4
:10048000C2F8148091F803C0BCF1480F07D100F105
:10049000080C4FF0010808FA0CF8C2F81080401C54
:1004A0000828CED35460BDE8F08102460020D3680E
:1004B0000B400BB1012000E0002070474161704704
:1004C0000161704708B50121084600F061F801217B
:1004D000102000F05DF804208DF80300ADF8000056
:1004E00003208DF8020069460348FFF753FF0221FD
:1004F0000846FFF72FFF08BD0010014000BFFEE7D0
:1005000000BFFEE77047000070B5002100230F22F6
:10051000C47804B3154C246804F4E064C4F5E064C2
:10052000210AC1F10403CA40447804FA03F1847833
:100530001440214309010E4C0678A155047804F0BB
:100540001F050124AC4005786D11AD0005F1E025D3
:10055000C5F8004109E0047804F01F050124AC400F
:10056000044D0678761145F8264070BD0CED00E08C
:1005700000E400E080E100E002490143024A11602A
:10058000704700000000FA050CED00E07047000025
:1005900029B1064A92690243044B9A6104E0034A76
:1005A00092698243014B9A6170470000001002403B
:1005B000704710B500F002F810BD00000CB5002027
:1005C000019000903348006840F480303149086061
:1005D00000BF3048006800F4003000900198401CD3
:1005E0000190009818B90198B0F5A06FF1D1294891
:1005F000006800F4003010B10120009001E00020FC
:1006000000900098012843D12348006840F0100072
:10061000214908600846006820F003000860084689
:10062000006840F0020008601A48406819494860B4
:100630000846406848600846406840F4806048606A
:100640000846406820F47C1048600846406840F442
:10065000E81048600846006840F08070086000BFFD
:100660000C48006800F000700028F9D00948406884
:1006700020F00300074948600846406840F0020047
:10068000486000BF0348406800F00C000828F9D11A
:100690000CBD00000010024000200240024800682B
:1006A000401E0149086070470400002010B513483F
:1006B000006840F001001149086008464068104990
:1006C00008400E494860084600680E4908400B493A
:1006D00008600846006820F48020086008464068EA
:1006E00020F4FE0048604FF41F008860FFF761FFB0
:1006F0004FF000600449086010BD00000010024087
:100700000000FFF8FFFFF6FE08ED00E010B5202125
:10071000944800F079F99448006801282DD100220E
:100720000821904800F052F9002208218D4800F07D
:100730005CF9602200218B4800F08FF90122002132
:10074000884800F043F900221146864800F04DF930
:1007500060220421834800F080F9002204218148AE
:1007600000F034F9042211467E4800F03EF97E483C
:100770000068401C7C490860F2E07B480068022861
:100780002DD160220421774800F067F9002204216E
:10079000744800F01BF904221146724800F025F954
:1007A000602208216F4800F058F9012208216D48A5
:1007B00000F00CF9002208216A4800F016F9002226
:1007C0001146684800F002F900221146654800F021
:1007D0000CF965480068401C63490860C0E0624845
:1007E000006803282DD1602208215E4800F035F909
:1007F000012208215B4800F0E9F80022082159484D
:1008000000F0F3F800220421564800F0DFF800223F
:100810000421544800F0E9F860220021514800F01A
:100820001CF9002211464F4800F0D0F804220021A4
:100830004C4800F0DAF84C480068401C4A4908600F
:100840008EE04948006804282DD10022082145483F
:1008500000F0BCF800220821424800F0C6F86022EF
:100860000021404800F0F9F8002211463D4800F010
:10087000ADF8042200213B4800F0B7F860220421C3
:10088000384800F0EAF801220421364800F09EF8CA
:1008900000220421334800F0A8F833480068401CC7
:1008A000314908605CE03048006805282DD160229D
:1008B00008212C4800F0D1F800220821294800F036
:1008C00085F804220821274800F08FF800221146FD
:1008D000244800F07BF800221146224800F085F8F9
:1008E000602204211F4800F0B8F8012204211D48AD
:1008F00000F06CF8002204211A4800F076F81A483B
:100900000068401C184908602AE060220021154850
:1009100000F0A3F801220021124800F057F800224D
:100920000421104800F061F8602208210D4800F011
:1009300094F8002208210B4800F048F8042208210E
:10094000084800F052F800220421064800F03EF862
:1009500000220421034800F048F801200249086001
:1009600010BD0000002C01400000002010B5012146
:10097000134800F058F801281CD112480068401CA8
:1009800010490860086800EBD0714910A0EB4101E4
:10099000012903D10C48FFF793FD0BE009490868D2
:1009A00000EBD0714910A0EB410119B901210648B3
:1009B000FFF784FD0121024800F026F810BD000079
:1009C00000080040100000200018014030B500234E
:1009D00001248C40A3B2048C9C430484048C02FA4E
:1009E00001F5ADB22C43048430BD30B5002304249E
:1009F0008C40A3B2048C9C430484048C02FA01F55D
:100A0000ADB22C43048430BDCA430282704721B189
:100A1000028842F00102028004E002884FF6FE7371
:100A20001A400280704730B502460020002300249F
:100A3000158A05EA0103958905EA010413B10CB191
:100A4000012000E0002030BD1AB183890B4383816F
:100A500002E083898B438381704770B50346002091
:100A600000241846183001258D40ACB21D8CA543DA
:100A70001D8409B1082909D100EB6100056825F042
:100A8000700505600568154305600EE00D1FC5F390
:100A90004E052844056825F4E045056005684FF6D5
:100AA000FF7606EA02263543056070BD0022028803
:100AB0001D4B98420ED01D4B98420BD0B0F1804F89
:100AC00008D01B4B984205D01A4B984202D01A4BC3
:100AD000984204D14FF68F731A404B881A43174B34
:100AE000984207D0164B984204D04FF6FF431A4065
:100AF000CB881A4302808B8883850B8803850A4B39
:100B000098420BD0094B984208D00E4B984205D022
:100B10000D4B984202D00D4B984201D10B7A0386BF
:100B20000123838270470000002C01400034014003
:100B30000004004000080040000C0040001000408D
:100B400000140040004001400044014000480140C2
:100B500000BFFEE730B51549B1F1807F01D3012018
:100B60001DE021F07F40401E4FF0E0225061501701
:100B70000F22002807DA13071D0E0D4B00F00F049B
:100B8000241F1D5503E013071C0E0A4B1C5400BF05
:100B900000204FF0E0229061072010610020012822
:100BA00001D100BFFEE7002030BD00004019010068
:100BB00018ED00E000E400E01CB5042000900120E6
:100BC0008DF8060000208DF804000C208DF805003B
:100BD0006846FFF775FB1CBD08B54FF4C060FFF712
:100BE000CBFC08208DF8000001208DF803000020C8
:100BF0008DF8010001208DF802006846FFF784FCA3
:100C000008BD000008B501214020FFF7C1FC1020FD
:100C10008DF803004FF6FF70ADF8000003208DF84B
:100C2000020069460148FFF7B5FB08BD0018014006
:100C3000FFF73CFDFFF7E6FFFFF78CFFFFF7BCFF78
:100C4000FFF7CAFFFFF73EFC00F01CF80EE0084873
:100C50000068012801D100F045F805480068022825
:100C600004D14FF6FF710348FFF728FCEFE70000BF
:100C70000C00002000180140002100E0491C8142C6
:100C8000FCDB70471FB54FF4A060FFF775FC082030
:100C90008DF80C0001208DF80F0000208DF80D005C
:100CA00002208DF80E0003A8FFF72EFC0020ADF8FF
:100CB0000600ADF8020042F20F70ADF804004720C4
:100CC000ADF8000069460648FFF7F0FE0122114624
:100CD0000348FFF7B9FE01218807FFF798FE1FBD03
:100CE0000008004010B501213748FFF7E9FB3748FD
:100CF000FFF7C2FF01213448FFF7E0FB3348FFF75D
:100D0000BBFF02213048FFF7DBFB3048FFF7B4FFA1
:100D100002212D48FFF7D2FB2C48FFF7ADFF04213D
:100D20002948FFF7CDFB2948FFF7A6FF04212648F5
:100D3000FFF7C4FB2548FFF79FFF08212248FFF774
:100D4000BFFB2248FFF798FF08211F48FFF7B6FBBB
:100D50001E48FFF791FF10211B48FFF7B1FB1B480E
:100D6000FFF78AFF10211848FFF7A8FB1748FFF785
:100D700083FF20211448FFF7A3FB1448FFF77CFFF3
:100D800020211148FFF79AFB1048FFF775FF40211B
:100D90000D48FFF795FB0D48FFF76EFF40210A480D
:100DA000FFF78CFB0948FFF767FF80210648FFF734
:100DB00087FB0648FFF760FF80210348FFF77EFBB3
:100DC0000248FFF759FF10BD0018014040771B0093
:100DD000F00D0008000000201400000028010008A9
:100DE000040E0008140000206406000044010008FE
:100DF00001000000000000000000000000000000F2
:040E000000000000EE
:04000005080000ED02
:00000001FF
