:020000040800F2
:100000007006002089010008A9050008A105000864
:10001000A5050008430200085D0C00080000000070
:10002000000000000000000000000000750600084D
:1000300047020008000000003106000861070008C0
:10004000A3010008A3010008A3010008A301000800
:10005000A3010008A301000849020008910200085A
:10006000D9020008A3010008A3010008A3010008A9
:10007000A3010008A3010008A3010008A3010008D0
:10008000A3010008A3010008A3010008A3010008C0
:10009000A3010008A3010008A3010008A3010008B0
:1000A000A3010008A3010008D1070008A30100086C
:1000B000A3010008A3010008310A0008A3010008F9
:1000C000A3010008A3010008A3010008A301000880
:1000D000A3010008A3010008A3010008A301000870
:1000E000A3010008A3010008A301000800F002F822
:1000F00000F03AF80AA090E8000C82448344AAF188
:100100000107DA4501D100F02FF8AFF2090EBAE885
:100110000F0013F0010F18BFFB1A43F0010318473B
:10012000E00D0000000E0000103A24BF78C878C12E
:10013000FAD8520724BF30C830C144BF04680C60ED
:10014000704700000023002400250026103A28BF35
:1001500078C1FBD8520728BF30C148BF0B60704739
:100160001FB51FBD10B510BD00F031F81146FFF7E7
:10017000F7FF00F005FE00F04FF803B4FFF7F2FFC1
:1001800003BC00F057F800000948804709480047C1
:10019000FEE7FEE7FEE7FEE7FEE7FEE7FEE7FEE737
:1001A000FEE7FEE704480549054A064B7047000094
:1001B00071070008ED0000087000002070060020A4
:1001C000700200207002002070477047704775462B
:1001D00000F02CF8AE4605006946534620F00700B3
:1001E000854618B020B5FFF7DDFFBDE820404FF091
:1001F00000064FF000074FF000084FF0000B21F011
:100200000701AC46ACE8C009ACE8C009ACE8C009DD
:10021000ACE8C0098D46704710B50446AFF30080C6
:100220002046BDE81040FFF7A8BF00000048704717
:100230001000002001491820ABBEFEE72600020096
:10024000704700BFFEE7704710B501210C4800F071
:100250005EF998B90B4800F005FE0121084800F04E
:1002600056F940B94FF4FA51074800F0A2FC40217A
:10027000064800F057F9012000F04EF810BD0000CC
:100280000010014020BF020000040040000C0140AB
:1002900010B502210C4800F03AF998B90B4800F06B
:1002A000E1FD0221084800F032F940B94FF4FA515B
:1002B000074800F07EFC4021064800F031F902209A
:1002C00000F02AF810BD00000010014020BF02001D
:1002D00000040040000C014010B504210B4800F060
:1002E00016F990B90A4800F0BDFD0421074800F056
:1002F0000EF938B90121074800F05BFC10210348D2
:1003000000F010F9042000F007F810BD00100140C3
:1003100020BF02000004004001490860704700004F
:1003200014040140002123498279002A3AD00A4668
:10033000126803689A430B461A600A1D1268036824
:100340009A430B1D1A60027911440A6803681A4324
:100350000A60184A0832126803689A43154B08333A
:100360001A601A1D126803689A43124B0C331A6004
:100370004279102A0ED11A1F126803681A430D4BD6
:1003800008331A601A1D126803681A43094B0C33AC
:100390001A600DE00749427911440A6803681A435C
:1003A0000A6005E0027911440A6803689A430A600A
:1003B000704700000004014030B500228B071C0F7D
:1003C0000F2303FA04F20B4B8C1053F824309343A1
:1003D000084C8D1044F8253023468C1053F82430F7
:1003E0008C07240F00FA04F42343024C8D1044F8C8
:1003F000253030BD080001402DE9F04102460025BE
:100400000026002000230024002791F803C00CF0F0
:100410000F0591F803C00CF0100CBCF1000F03D0D5
:1004200091F802C04CEA050591F800C0BCF1000F3C
:1004300031D0146800202BE04FF0010C0CFA00F3CF
:10044000B1F800C00CEA03069E4220D183004FF0B1
:100450000F0C0CFA03F7BC4305FA03FC4CEA040446
:1004600091F803C0BCF1280F06D14FF0010C0CFA33
:1004700000FCC2F814C00AE091F803C0BCF1480FB8
:1004800005D14FF0010C0CFA00FCC2F810C0401C62
:100490000828D1D31460B1F800C0BCF1FF0F34DDDF
:1004A000546800202EE000F1080C4FF0010808FA13
:1004B0000CF3B1F800C00CEA03069E4221D1830080
:1004C0004FF00F0C0CFA03F7BC4305FA03FC4CEA9F
:1004D000040491F803C0BCF1280F05D100F1080C09
:1004E00008FA0CF8C2F8148091F803C0BCF1480F68
:1004F00007D100F1080C4FF0010808FA0CF8C2F817
:100500001080401C0828CED35460BDE8F08102461C
:100510000020D3680B400BB1012000E000207047A1
:1005200041617047016170471FB50121084600F025
:1005300091F80121102000F08DF804208DF80F00B3
:10054000ADF80C0003208DF80E0003A91348FFF747
:1005500053FF02210846FFF72FFF042001900120DE
:100560008DF80A0000208DF808000C208DF8090095
:1005700001A8FFF7D7FE4FF4E06000F04FF8082025
:100580008DF8000001208DF8030000208DF8010097
:100590008DF80200684600F009F81FBD0010014008
:1005A00000BFFEE700BFFEE77047000070B5002106
:1005B00000230F22C47804B3154C246804F4E064CB
:1005C000C4F5E064210AC1F10403CA40447804FA86
:1005D00003F184781440214309010E4C0678A1559B
:1005E000047804F01F050124AC4005786D11AD00BE
:1005F00005F1E025C5F8004109E0047804F01F0585
:100600000124AC40044D0678761145F8264070BDB3
:100610000CED00E000E400E080E100E0024901436D
:10062000024A1160704700000000FA050CED00E07E
:100630007047000029B1064AD2690243044BDA61CF
:1006400004E0034AD2698243014BDA61704700003B
:100650000010024029B1064A92690243044B9A6194
:1006600004E0034A92698243014B9A61704700009B
:1006700000100240704710B500F002F810BD0000F5
:100680000CB50020019000903348006840F48030A1
:100690003149086000BF3048006800F40030009025
:1006A0000198401C0190009818B90198B0F5A06F0E
:1006B000F1D12948006800F4003010B10120009009
:1006C00001E0002000900098012843D123480068F1
:1006D00040F01000214908600846006820F003003F
:1006E00008600846006840F0020008601A48406848
:1006F000194948600846406848600846406840F428
:10070000806048600846406820F47C1048600846D5
:10071000406840F4E81048600846006840F0807087
:10072000086000BF0C48006800F000700028F9D095
:100730000948406820F003000749486008464068BF
:1007400040F00200486000BF0348406800F00C0021
:100750000828F9D10CBD0000001002400020024022
:1007600002480068401E0149086070470C000020E4
:1007700010B51348006840F00100114908600846B0
:100780004068104908400E494860084600680E4914
:1007900008400B4908600846006820F48020086083
:1007A0000846406820F4FE0048604FF41F0088604F
:1007B000FFF761FF4FF000600449086010BD0000C2
:1007C000001002400000FFF8FFFFF6FE08ED00E019
:1007D00010B52021944800F059F994480068012888
:1007E0002DD100220821904800F032F90022082182
:1007F0008D4800F03CF9602200218B4800F0B0F9F0
:1008000001220021884800F023F900221146864881
:1008100000F02DF960220421834800F0A1F90022A4
:100820000421814800F014F9042211467E4800F0AA
:100830001EF97E480068401C7C490860F2E07B4855
:10084000006802282DD160220421774800F088F941
:1008500000220421744800F0FBF80422114672487B
:1008600000F005F9602208216F4800F079F90122B3
:1008700008216D4800F0ECF8002208216A4800F0D9
:10088000F6F800221146684800F0E2F8002211460E
:10089000654800F0ECF865480068401C6349086052
:1008A000C0E06248006803282DD1602208215E481C
:1008B00000F056F9012208215B4800F0C9F8002237
:1008C0000821594800F0D3F800220421564800F0CE
:1008D000BFF800220421544800F0C9F8602200212A
:1008E000514800F03DF9002211464F4800F0B0F8A1
:1008F000042200214C4800F0BAF84C480068401C23
:100900004A4908608EE04948006804282DD1002239
:100910000821454800F09CF800220821424800F0D8
:10092000A6F860220021404800F01AF90022114682
:100930003D4800F08DF8042200213B4800F097F874
:1009400060220421384800F00BF9012204213648C6
:1009500000F07EF800220421334800F088F8334884
:100960000068401C314908605CE030480068052898
:100970002DD1602208212C4800F0F2F80022082135
:10098000294800F065F804220821274800F06FF894
:1009900000221146244800F05BF80022114622484C
:1009A00000F065F8602204211F4800F0D9F8012208
:1009B00004211D4800F04CF8002204211A4800F0E0
:1009C00056F81A480068401C184908602AE060225E
:1009D0000021154800F0C4F801220021124800F05F
:1009E00037F800220421104800F041F86022082165
:1009F0000D4800F0B5F8002208210B4800F028F857
:100A000004220821084800F032F800220421064898
:100A100000F01EF800220421034800F028F801200D
:100A20000249086010BD0000002C014000000020B9
:100A300010B505480068401E0349086001210348BD
:100A400000F024F810BD0000040000200008004061
:100A500030B5002301248C40A3B2048C9C43048451
:100A6000048C02FA01F5ADB22C43048430BD30B5DC
:100A7000002304248C40A3B2048C9C430484048C83
:100A800002FA01F5ADB22C43048430BDCA430282A0
:100A9000704721B1028842F00102028004E002881E
:100AA0004FF6FE731A40028070471AB183890B43D8
:100AB000838102E083898B438381704770B5002472
:100AC00000220023058C4FF6EF7635400584028C1A
:100AD0008388048B48F6FF752C404FF6FF452C4069
:100AE0000D884FF6FF7606EA05252C434FF6DF7595
:100AF0002A400D8906EA05152A434D8806EA0515A0
:100B00002A43154DA84202D0144DA8421DD14FF6DC
:100B10007F752A404D894FF6FF7606EA05152A4370
:100B20004FF6BF752A408D8806EA05152A434FF611
:100B3000FF352B404FF2FF752B408D8906EA850566
:100B40002B43CD8906EA85052B4383800483CD881A
:100B50000587028470BD0000002C01400034014074
:100B600070B50346002000241846183001258D403A
:100B7000ACB21D8CA5431D8409B1082909D100EB35
:100B80006100056825F0700505600568154305607E
:100B90000EE00D1FC5F34E052844056825F4E04519
:100BA000056005684FF6FF7606EA022635430560C4
:100BB00070BD018770470000002202881D4B9842DB
:100BC0000ED01D4B98420BD0B0F1804F08D01B4B7C
:100BD000984205D01A4B984202D01A4B984204D141
:100BE0004FF68F731A404B881A43174B984207D021
:100BF000164B984204D04FF6FF431A40CB881A4355
:100C000002808B8883850B8803850A4B98420BD022
:100C1000094B984208D00E4B984205D00D4B984294
:100C200002D00D4B984201D10B7A038601238382B7
:100C300070470000002C01400034014000040040D7
:100C400000080040000C004000100040001400406C
:100C500000400140004401400048014000BFFEE761
:100C60001FB501210846FFF7F5FC01211020FFF711
:100C7000F1FC04208DF80F000220ADF80C000320D9
:100C80008DF80E0003A91448FFF7B6FB01210220DE
:100C9000FFF792FB0220019001208DF80A0000204E
:100CA0008DF808000C208DF8090001A8FFF73AFB29
:100CB0004FF4E060FFF7B2FC07208DF80000012040
:100CC0008DF8030000208DF801008DF802006846C1
:100CD000FFF76CFC1FBD0000001001401FB5012193
:100CE0000846FFF7B7FC01211020FFF7B3FC0420F2
:100CF0008DF80F000120ADF80C0003208DF80E00D8
:100D000003A91348FFF778FB00210220FFF754FBEB
:100D1000012001908DF80A0000208DF808000C20B9
:100D20008DF8090001A8FFF7FDFA4FF4E060FFF726
:100D300075FC06208DF8000001208DF803000020CE
:100D40008DF801008DF802006846FFF72FFC1FBDEB
:100D50000010014008B501214020FFF77BFC102066
:100D60008DF803004FF6FF70ADF8000003208DF8FA
:100D7000020069460148FFF73FFB08BD001801402B
:100D8000FFF7F6FCFFF7E6FF00F072F800F012F84C
:100D9000FFF7CAFBFFF764FFFFF7A0FF00F07CF846
:100DA00000F01EF801210248FFF703FF00BFFEE735
:100DB0000004004008B501210820FFF74BFC10207B
:100DC0008DF803004020ADF8000003208DF80200EC
:100DD00069460248FFF710FB08BD0000000C014007
:100DE00000B589B001210420FFF734FC18208DF8EC
:100DF00023008020ADF8200003208DF8220008A9F0
:100E00001648FFF7F9FA01210220FFF713FC42F21E
:100E10000F70ADF818009020ADF814000020ADF868
:100E20001A00ADF8160005A90D48FFF7C5FE7020A1
:100E3000ADF804000120ADF8060041F28830ADF8AD
:100E40000A000220ADF80C0001A90548FFF736FEA4
:100E500001210348FFF71DFE09B000BD0008014055
:100E600000040040002100E0491C8142FCDB704787
:100E700008B501211020FFF7EDFB10208DF80300CD
:100E8000ADF8000003208DF8020069460148FFF725
:100E9000B3FA08BD001001401FB54FF4C060FFF762
:100EA000BDFB1E208DF80C0001208DF80F000020E6
:100EB0008DF80D0002208DF80E0003A8FFF776FBD9
:100EC00001210420FFF7B6FB0720ADF8040008203D
:100ED000ADF800000020ADF80600ADF8020069464C
:100EE0000648FFF769FE012211460448FFF7DDFDC1
:100EF00001210248FFF7CDFD1FBD000000080040A2
:100F0000200F000800000020100000002801000849
:100F1000300F0008100000206006000044010008A7
:100F200001000000000000000000000000000000C0
:04000005080000ED02
:00000001FF
