:020000040800F2
:100000006806002089010008870300087F030008B4
:100010008303000843020008FD07000800000000F9
:10002000000000000000000000000000AD03000818
:100030004702000800000000890300089904000836
:10004000A3010008A3010008A3010008A301000800
:10005000A3010008A3010008A3010008A3010008F0
:1000600049020008A3010008A3010008A301000839
:10007000A3010008A3010008A3010008A3010008D0
:10008000A3010008A3010008A3010008A3010008C0
:10009000A3010008A3010008A3010008A3010008B0
:1000A000A3010008A301000809050008A301000836
:1000B000A3010008A3010008A3010008A301000890
:1000C000A3010008A3010008A3010008A301000880
:1000D000A3010008A3010008A3010008A301000870
:1000E000A3010008A3010008A301000800F002F822
:1000F00000F03AF80AA090E8000C82448344AAF188
:100100000107DA4501D100F02FF8AFF2090EBAE885
:100110000F0013F0010F18BFFB1A43F0010318473B
:100120007808000098080000103A24BF78C878C109
:10013000FAD8520724BF30C830C144BF04680C60ED
:10014000704700000023002400250026103A28BF35
:1001500078C1FBD8520728BF30C148BF0B60704739
:100160001FB51FBD10B510BD00F031F81146FFF7E7
:10017000F7FF00F08DFB00F04FF803B4FFF7F2FF3C
:1001800003BC00F057F800000948804709480047C1
:10019000FEE7FEE7FEE7FEE7FEE7FEE7FEE7FEE737
:1001A000FEE7FEE704480549054A064B7047000094
:1001B000A9040008ED00000868000020680600207F
:1001C000680200206802002070477047704775463B
:1001D00000F02CF8AE4605006946534620F00700B3
:1001E000854618B020B5FFF7DDFFBDE820404FF091
:1001F00000064FF000074FF000084FF0000B21F011
:100200000701AC46ACE8C009ACE8C009ACE8C009DD
:10021000ACE8C0098D46704710B50446AFF30080C6
:100220002046BDE81040FFF7A8BF00000048704717
:100230000800002001491820ABBEFEE7260002009E
:10024000704700BFFEE7704710B5024800F08FF816
:1002500010BD0000001001402DE9F04102460025CC
:100260000026002000230024002791F803C00CF092
:100270000F0591F803C00CF0100CBCF1000F03D077
:1002800091F802C04CEA050591F800C0BCF1000FDE
:1002900031D0146800202BE04FF0010C0CFA00F371
:1002A000B1F800C00CEA03069E4220D183004FF053
:1002B0000F0C0CFA03F7BC4305FA03FC4CEA0404E8
:1002C00091F803C0BCF1280F06D14FF0010C0CFAD5
:1002D00000FCC2F814C00AE091F803C0BCF1480F5A
:1002E00005D14FF0010C0CFA00FCC2F810C0401C04
:1002F0000828D1D31460B1F800C0BCF1FF0F34DD81
:10030000546800202EE000F1080C4FF0010808FAB4
:100310000CF3B1F800C00CEA03069E4221D1830021
:100320004FF00F0C0CFA03F7BC4305FA03FC4CEA40
:10033000040491F803C0BCF1280F05D100F1080CAA
:1003400008FA0CF8C2F8148091F803C0BCF1480F09
:1003500007D100F1080C4FF0010808FA0CF8C2F8B8
:100360001080401C0828CED35460BDE8F0810146BF
:10037000886880B27047416170470161704700BF73
:10038000FEE700BFFEE770477047000029B1064A4C
:1003900092690243044B9A6104E0034A92698243E2
:1003A000014B9A617047000000100240704710B581
:1003B00000F002F810BD00000CB500200190009084
:1003C0003348006840F480303149086000BF30484D
:1003D000006800F4003000900198401C01900098E3
:1003E00018B90198B0F5A06FF1D12948006800F460
:1003F000003010B10120009001E000200090009832
:10040000012843D12348006840F0100021490860CA
:100410000846006820F0030008600846006840F0C5
:10042000020008601A484068194948600846406858
:1004300048600846406840F480604860084640686C
:1004400020F47C1048600846406840F4E81048609A
:100450000846006840F08070086000BF0C480068E3
:1004600000F000700028F9D00948406820F003002F
:10047000074948600846406840F00200486000BFF5
:100480000348406800F00C000828F9D10CBD0000BA
:10049000001002400020024002480068401E01494E
:1004A000086070470400002010B51348006840F051
:1004B00001001149086008464068104908400E498B
:1004C0004860084600680E4908400B490860084625
:1004D000006820F4802008600846406820F4FE0090
:1004E00048604FF41F008860FFF761FF4FF0006025
:1004F0000449086010BD0000001002400000FFF831
:10050000FFFFF6FE08ED00E010B52021944800F052
:1005100049F99448006801282DD10022082190480B
:1005200000F022F9002208218D4800F02CF9602209
:1005300000218B4800F039F901220021884800F0A1
:1005400013F900221146864800F01DF960220421AB
:10055000834800F02AF900220421814800F004F9C0
:10056000042211467E4800F00EF97E480068401CC7
:100570007C490860F2E07B48006802282DD16022A7
:100580000421774800F011F900220421744800F09A
:10059000EBF804221146724800F0F5F860220821B9
:1005A0006F4800F002F9012208216D4800F0DCF8E4
:1005B000002208216A4800F0E6F800221146684847
:1005C00000F0D2F800221146654800F0DCF86548DA
:1005D0000068401C63490860C0E062480068032866
:1005E0002DD1602208215E4800F0DFF801220821A9
:1005F0005B4800F0B9F800220821594800F0C3F820
:1006000000220421564800F0AFF80022042154488B
:1006100000F0B9F860220021514800F0C6F800222D
:1006200011464F4800F0A0F8042200214C4800F089
:10063000AAF84C480068401C4A4908608EE04948C6
:10064000006804282DD100220821454800F08CF8CC
:1006500000220821424800F096F86022002140481C
:1006600000F0A3F8002211463D4800F07DF8042276
:1006700000213B4800F087F860220421384800F050
:1006800094F801220421364800F06EF8002204217B
:10069000334800F078F833480068401C314908605E
:1006A0005CE03048006805282DD1602208212C48E4
:1006B00000F07BF800220821294800F055F80422B8
:1006C0000821274800F05FF800221146244800F076
:1006D0004BF800221146224800F055F86022042110
:1006E0001F4800F062F8012204211D4800F03CF888
:1006F000002204211A4800F046F81A480068401CFD
:10070000184908602AE060220021154800F04DF8E1
:1007100001220021124800F027F80022042110488D
:1007200000F031F8602208210D4800F03EF8002268
:1007300008210B4800F018F804220821084800F0AE
:1007400022F800220421064800F00EF800220421BD
:10075000034800F018F801200249086010BD0000AD
:10076000002C01400000002030B5002301248C4003
:10077000A3B2048C9C430484048C02FA01F5ADB24C
:100780002C43048430BD30B5002304248C40A3B234
:10079000048C9C430484048C02FA01F5ADB22C4312
:1007A000048430BDCA430282704770B503460020FE
:1007B00000241846183001258D40ACB21D8CA5438D
:1007C0001D8409B1082909D100EB6100056825F0F5
:1007D000700505600568154305600EE00D1FC5F343
:1007E0004E052844056825F4E045056005684FF688
:1007F000FF7606EA02263543056070BD00BFFEE7BE
:1008000030B51549B1F1807F01D301201DE021F001
:100810007F40401E4FF0E022506150170F22002809
:1008200007DA13071D0E0D4B00F00F04241F1D5592
:1008300003E013071C0E0A4B1C5400BF00204FF0AE
:10084000E0229061072010610020012801D100BF43
:10085000FEE7002030BD00004019010018ED00E067
:1008600000E400E008B501214020FFF78FFD1020D3
:100870008DF803004FF6FF70ADF8000003208DF8EF
:10088000020069460148FFF7E7FC08BD0018014077
:10089000FFF70AFEFFF7E6FFFFF7B2FF6FE0012167
:1008A0003748FFF76AFD642000F06CF801213448F6
:1008B000FFF761FD642000F065F802213048FFF782
:1008C0005CFD642000F05EF802212D48FFF753FD27
:1008D000642000F057F804212948FFF74EFD6420FA
:1008E00000F050F804212648FFF745FD642000F091
:1008F00049F808212248FFF740FD642000F042F843
:1009000008211F48FFF737FD642000F03BF8102155
:100910001B48FFF732FD642000F034F8102118481E
:10092000FFF729FD642000F02DF820211448FFF77F
:1009300024FD642000F026F820211148FFF71BFD5C
:10094000642000F01FF840210D48FFF716FD6420D9
:1009500000F018F840210A48FFF70DFD642000F070
:1009600011F880210648FFF708FD642000F00AF81E
:1009700080210348FFF7FFFC642000F003F88EE7B6
:10098000001801400349086000BF024909680029B6
:10099000FBDC704704000020B809000800000020BC
:1009A0000800000028010008C00900080800002015
:1009B0006006000044010008010000000000000083
:04000005080000ED02
:00000001FF
